{
  "contractName": "AssetList",
  "abi": [
    {
      "constant": true,
      "inputs": [],
      "name": "ownershipList",
      "outputs": [
        {
          "name": "",
          "type": "address"
        }
      ],
      "payable": false,
      "stateMutability": "view",
      "type": "function"
    },
    {
      "constant": true,
      "inputs": [
        {
          "name": "",
          "type": "uint256"
        }
      ],
      "name": "assets",
      "outputs": [
        {
          "name": "id",
          "type": "bytes32"
        },
        {
          "name": "name",
          "type": "string"
        },
        {
          "name": "desc",
          "type": "string"
        },
        {
          "name": "owner",
          "type": "address"
        }
      ],
      "payable": false,
      "stateMutability": "view",
      "type": "function"
    },
    {
      "inputs": [],
      "payable": false,
      "stateMutability": "nonpayable",
      "type": "constructor"
    },
    {
      "anonymous": false,
      "inputs": [
        {
          "indexed": false,
          "name": "id",
          "type": "bytes32"
        },
        {
          "indexed": false,
          "name": "name",
          "type": "string"
        },
        {
          "indexed": false,
          "name": "desc",
          "type": "string"
        }
      ],
      "name": "AssetCreated",
      "type": "event"
    },
    {
      "constant": false,
      "inputs": [
        {
          "name": "_name",
          "type": "string"
        },
        {
          "name": "_desc",
          "type": "string"
        }
      ],
      "name": "createAsset",
      "outputs": [],
      "payable": false,
      "stateMutability": "nonpayable",
      "type": "function"
    },
    {
      "constant": true,
      "inputs": [
        {
          "name": "i",
          "type": "uint256"
        }
      ],
      "name": "getAsset",
      "outputs": [
        {
          "name": "",
          "type": "bytes32"
        },
        {
          "name": "",
          "type": "string"
        },
        {
          "name": "",
          "type": "string"
        },
        {
          "name": "",
          "type": "address"
        }
      ],
      "payable": false,
      "stateMutability": "view",
      "type": "function"
    },
    {
      "constant": true,
      "inputs": [],
      "name": "getAssetCount",
      "outputs": [
        {
          "name": "",
          "type": "uint256"
        }
      ],
      "payable": false,
      "stateMutability": "view",
      "type": "function"
    }
  ],
  "bytecode": "0x608060405234801561001057600080fd5b5061001961007b565b604051809103906000f080158015610035573d6000803e3d6000fd5b50600160006101000a81548173ffffffffffffffffffffffffffffffffffffffff021916908373ffffffffffffffffffffffffffffffffffffffff16021790555061008b565b60405161027380610f4f83390190565b610eb58061009a6000396000f30060806040526004361061006d576000357c0100000000000000000000000000000000000000000000000000000000900463ffffffff1680636f009fbd14610072578063a0aead4d146100c9578063a2a55b68146100f4578063cf35bdd0146101a3578063eac8f5b8146102f7575b600080fd5b34801561007e57600080fd5b5061008761044b565b604051808273ffffffffffffffffffffffffffffffffffffffff1673ffffffffffffffffffffffffffffffffffffffff16815260200191505060405180910390f35b3480156100d557600080fd5b506100de610471565b6040518082815260200191505060405180910390f35b34801561010057600080fd5b506101a1600480360381019080803590602001908201803590602001908080601f0160208091040260200160405190810160405280939291908181526020018383808284378201915050505050509192919290803590602001908201803590602001908080601f016020809104026020016040519081016040528093929190818152602001838380828437820191505050505050919291929050505061047d565b005b3480156101af57600080fd5b506101ce60048036038101908080359060200190929190505050610826565b60405180856000191660001916815260200180602001806020018473ffffffffffffffffffffffffffffffffffffffff1673ffffffffffffffffffffffffffffffffffffffff168152602001838103835286818151815260200191508051906020019080838360005b83811015610252578082015181840152602081019050610237565b50505050905090810190601f16801561027f5780820380516001836020036101000a031916815260200191505b50838103825285818151815260200191508051906020019080838360005b838110156102b857808201518184015260208101905061029d565b50505050905090810190601f1680156102e55780820380516001836020036101000a031916815260200191505b50965050505050505060405180910390f35b34801561030357600080fd5b50610322600480360381019080803590602001909291905050506109b5565b60405180856000191660001916815260200180602001806020018473ffffffffffffffffffffffffffffffffffffffff1673ffffffffffffffffffffffffffffffffffffffff168152602001838103835286818151815260200191508051906020019080838360005b838110156103a657808201518184015260208101905061038b565b50505050905090810190601f1680156103d35780820380516001836020036101000a031916815260200191505b50838103825285818151815260200191508051906020019080838360005b8381101561040c5780820151818401526020810190506103f1565b50505050905090810190601f1680156104395780820380516001836020036101000a031916815260200191505b50965050505050505060405180910390f35b600160009054906101000a900473ffffffffffffffffffffffffffffffffffffffff1681565b60008080549050905090565b610485610da2565b61048e42610bc4565b6040518082805190602001908083835b6020831015156104c3578051825260208201915060208101905060208303925061049e565b6001836020036101000a03801982511681845116808217855250505050505090500191505060405180910390208160000190600019169081600019168152505082816020018190525081816040018190525033816060019073ffffffffffffffffffffffffffffffffffffffff16908173ffffffffffffffffffffffffffffffffffffffff1681525050600081908060018154018082558091505090600182039060005260206000209060040201600090919290919091506000820151816000019060001916905560208201518160010190805190602001906105a7929190610de4565b5060408201518160020190805190602001906105c4929190610de4565b5060608201518160030160006101000a81548173ffffffffffffffffffffffffffffffffffffffff021916908373ffffffffffffffffffffffffffffffffffffffff160217905550505050600160009054906101000a900473ffffffffffffffffffffffffffffffffffffffff1673ffffffffffffffffffffffffffffffffffffffff1663286c0257826000015183606001516040518363ffffffff167c01000000000000000000000000000000000000000000000000000000000281526004018083600019166000191681526020018273ffffffffffffffffffffffffffffffffffffffff1673ffffffffffffffffffffffffffffffffffffffff16815260200192505050600060405180830381600087803b1580156106e457600080fd5b505af11580156106f8573d6000803e3d6000fd5b505050507f650413310a73dc94ca02adddaab7371cc604cb3c9dcaeb487c6741906bb6d4938160000151826020015183604001516040518084600019166000191681526020018060200180602001838103835285818151815260200191508051906020019080838360005b8381101561077e578082015181840152602081019050610763565b50505050905090810190601f1680156107ab5780820380516001836020036101000a031916815260200191505b50838103825284818151815260200191508051906020019080838360005b838110156107e45780820151818401526020810190506107c9565b50505050905090810190601f1680156108115780820380516001836020036101000a031916815260200191505b509550505050505060405180910390a1505050565b60008181548110151561083557fe5b9060005260206000209060040201600091509050806000015490806001018054600181600116156101000203166002900480601f0160208091040260200160405190810160405280929190818152602001828054600181600116156101000203166002900480156108e75780601f106108bc576101008083540402835291602001916108e7565b820191906000526020600020905b8154815290600101906020018083116108ca57829003601f168201915b505050505090806002018054600181600116156101000203166002900480601f0160208091040260200160405190810160405280929190818152602001828054600181600116156101000203166002900480156109855780601f1061095a57610100808354040283529160200191610985565b820191906000526020600020905b81548152906001019060200180831161096857829003601f168201915b5050505050908060030160009054906101000a900473ffffffffffffffffffffffffffffffffffffffff16905084565b600060608060008085101580156109d0575060008054905085105b15156109db57600080fd5b6000858154811015156109ea57fe5b906000526020600020906004020160000154600086815481101515610a0b57fe5b9060005260206000209060040201600101600087815481101515610a2b57fe5b9060005260206000209060040201600201600088815481101515610a4b57fe5b906000526020600020906004020160030160009054906101000a900473ffffffffffffffffffffffffffffffffffffffff16828054600181600116156101000203166002900480601f016020809104026020016040519081016040528092919081815260200182805460018160011615610100020316600290048015610b125780601f10610ae757610100808354040283529160200191610b12565b820191906000526020600020905b815481529060010190602001808311610af557829003601f168201915b50505050509250818054600181600116156101000203166002900480601f016020809104026020016040519081016040528092919081815260200182805460018160011615610100020316600290048015610bae5780601f10610b8357610100808354040283529160200191610bae565b820191906000526020600020905b815481529060010190602001808311610b9157829003601f168201915b5050505050915093509350935093509193509193565b6060600060606000806060600060649550856040519080825280601f01601f191660200182016040528015610c085781602001602082028038833980820191505090505b509450600093505b600088141515610ca757600a88811515610c2657fe5b069250600a88811515610c3557fe5b049750826030017f0100000000000000000000000000000000000000000000000000000000000000028585806001019650815181101515610c7257fe5b9060200101907effffffffffffffffffffffffffffffffffffffffffffffffffffffffffffff1916908160001a905350610c10565b600184016040519080825280601f01601f191660200182016040528015610cdd5781602001602082028038833980820191505090505b509150600090505b8381111515610d945784818503815181101515610cfe57fe5b9060200101517f010000000000000000000000000000000000000000000000000000000000000090047f0100000000000000000000000000000000000000000000000000000000000000028282815181101515610d5757fe5b9060200101907effffffffffffffffffffffffffffffffffffffffffffffffffffffffffffff1916908160001a9053508080600101915050610ce5565b819650505050505050919050565b608060405190810160405280600080191681526020016060815260200160608152602001600073ffffffffffffffffffffffffffffffffffffffff1681525090565b828054600181600116156101000203166002900490600052602060002090601f016020900481019282601f10610e2557805160ff1916838001178555610e53565b82800160010185558215610e53579182015b82811115610e52578251825591602001919060010190610e37565b5b509050610e609190610e64565b5090565b610e8691905b80821115610e82576000816000905550600101610e6a565b5090565b905600a165627a7a7230582014dfcf4d135b62eaa386e4ee1be0e9aad0a793fab7616a03e3bb96925fa956040029608060405234801561001057600080fd5b50610253806100206000396000f30060806040526004361061004c576000357c0100000000000000000000000000000000000000000000000000000000900463ffffffff168063286c025714610051578063a3e99ad4146100a2575b600080fd5b34801561005d57600080fd5b506100a06004803603810190808035600019169060200190929190803573ffffffffffffffffffffffffffffffffffffffff169060200190929190505050610113565b005b3480156100ae57600080fd5b506100d160048036038101908080356000191690602001909291905050506101e3565b604051808273ffffffffffffffffffffffffffffffffffffffff1673ffffffffffffffffffffffffffffffffffffffff16815260200191505060405180910390f35b80600080846000191660001916815260200190815260200160002060006101000a81548173ffffffffffffffffffffffffffffffffffffffff021916908373ffffffffffffffffffffffffffffffffffffffff1602179055507fdba1b43457c3563d6da04ea41518d96eb208e76d369bf34ed40f8cfa3e0a65a082826040518083600019166000191681526020018273ffffffffffffffffffffffffffffffffffffffff1673ffffffffffffffffffffffffffffffffffffffff1681526020019250505060405180910390a15050565b6000806000836000191660001916815260200190815260200160002060009054906101000a900473ffffffffffffffffffffffffffffffffffffffff1690509190505600a165627a7a72305820556f7f9f10bd43017ff19495dba8a6720591fe1f3d536ac60979c885d05463d90029",
  "source": "pragma solidity ^0.4.24;\r\n\r\nimport \"./OwnershipList.sol\";\r\n\r\ncontract AssetList {\r\n\r\n    struct Asset {\r\n        bytes32 id;\r\n        string name;\r\n        string desc;\r\n        address owner;\r\n    }\r\n\r\n    Asset[] public assets;\r\n\r\n    OwnershipList public ownershipList;\r\n\r\n\tevent AssetCreated(bytes32 id, string name, string desc);\r\n\r\n    constructor() public {\r\n\t\townershipList = new OwnershipList();\r\n\t}\r\n\r\n\tfunction createAsset(string _name, string _desc) public {\r\n        Asset memory newAsset;\r\n        newAsset.id = sha3(uintToString(now));\r\n        newAsset.name = _name;\r\n        newAsset.desc = _desc;\r\n        newAsset.owner = msg.sender;\r\n        assets.push(newAsset);\r\n\r\n        ownershipList.assignOwner(newAsset.id, newAsset.owner);\r\n\r\n        emit AssetCreated(newAsset.id, newAsset.name, newAsset.desc);\r\n\t}\r\n\r\n    function getAsset(uint i) public view returns(bytes32, string, string, address) {\r\n        require(i >= 0 && i < assets.length);\r\n        return(assets[i].id, assets[i].name, assets[i].desc, assets[i].owner);\r\n    }\r\n\r\n    function getAssetCount() public view returns(uint) {\r\n        return assets.length;\r\n    }\r\n\r\n    function uintToString(uint v) internal returns (string str) {\r\n        uint maxlength = 100;\r\n        bytes memory reversed = new bytes(maxlength);\r\n        uint i = 0;\r\n        while (v != 0) {\r\n            uint remainder = v % 10;\r\n            v = v / 10;\r\n            reversed[i++] = byte(48 + remainder);\r\n        }\r\n        bytes memory s = new bytes(i + 1);\r\n        for (uint j = 0; j <= i; j++) {\r\n            s[j] = reversed[i - j];\r\n        }\r\n        str = string(s);\r\n    }\r\n}\r\n",
  "sourcePath": "C:\\Users\\Vivek\\Projects\\Asset Registry\\asset-registry\\contracts\\AssetList.sol",
  "compiler": {
    "name": "solc",
    "version": "0.4.24+commit.e67f0147.Emscripten.clang"
  },
  "schemaVersion": "2.0.1",
  "updatedAt": "2018-07-18T21:45:04.886Z"
}