{
  "contractName": "AssetList",
  "abi": [
    {
      "constant": true,
      "inputs": [
        {
          "name": "",
          "type": "uint256"
        }
      ],
      "name": "assets",
      "outputs": [
        {
          "name": "assetName",
          "type": "string"
        },
        {
          "name": "assetDesc",
          "type": "string"
        },
        {
          "name": "ownership",
          "type": "address"
        }
      ],
      "payable": false,
      "stateMutability": "view",
      "type": "function"
    },
    {
      "anonymous": false,
      "inputs": [
        {
          "indexed": false,
          "name": "assetName",
          "type": "string"
        },
        {
          "indexed": false,
          "name": "assetDesc",
          "type": "string"
        }
      ],
      "name": "AssetCreated",
      "type": "event"
    },
    {
      "constant": false,
      "inputs": [
        {
          "name": "_assetName",
          "type": "string"
        },
        {
          "name": "_assetDesc",
          "type": "string"
        }
      ],
      "name": "createAsset",
      "outputs": [],
      "payable": false,
      "stateMutability": "nonpayable",
      "type": "function"
    },
    {
      "constant": true,
      "inputs": [
        {
          "name": "i",
          "type": "uint256"
        }
      ],
      "name": "getAsset",
      "outputs": [
        {
          "name": "",
          "type": "string"
        },
        {
          "name": "",
          "type": "string"
        },
        {
          "name": "",
          "type": "address"
        }
      ],
      "payable": false,
      "stateMutability": "view",
      "type": "function"
    },
    {
      "constant": true,
      "inputs": [],
      "name": "getAssetCount",
      "outputs": [
        {
          "name": "",
          "type": "uint256"
        }
      ],
      "payable": false,
      "stateMutability": "view",
      "type": "function"
    }
  ],
  "bytecode": "0x608060405234801561001057600080fd5b50610a66806100206000396000f300608060405260043610610062576000357c0100000000000000000000000000000000000000000000000000000000900463ffffffff168063a0aead4d14610067578063a2a55b6814610092578063cf35bdd014610141578063eac8f5b814610286575b600080fd5b34801561007357600080fd5b5061007c6103cb565b6040518082815260200191505060405180910390f35b34801561009e57600080fd5b5061013f600480360381019080803590602001908201803590602001908080601f0160208091040260200160405190810160405280939291908181526020018383808284378201915050505050509192919290803590602001908201803590602001908080601f01602080910402602001604051908101604052809392919081815260200183838082843782019150505050505091929192905050506103d7565b005b34801561014d57600080fd5b5061016c600480360381019080803590602001909291905050506105ea565b6040518080602001806020018473ffffffffffffffffffffffffffffffffffffffff1673ffffffffffffffffffffffffffffffffffffffff168152602001838103835286818151815260200191508051906020019080838360005b838110156101e25780820151818401526020810190506101c7565b50505050905090810190601f16801561020f5780820380516001836020036101000a031916815260200191505b50838103825285818151815260200191508051906020019080838360005b8381101561024857808201518184015260208101905061022d565b50505050905090810190601f1680156102755780820380516001836020036101000a031916815260200191505b509550505050505060405180910390f35b34801561029257600080fd5b506102b160048036038101908080359060200190929190505050610773565b6040518080602001806020018473ffffffffffffffffffffffffffffffffffffffff1673ffffffffffffffffffffffffffffffffffffffff168152602001838103835286818151815260200191508051906020019080838360005b8381101561032757808201518184015260208101905061030c565b50505050905090810190601f1680156103545780820380516001836020036101000a031916815260200191505b50838103825285818151815260200191508051906020019080838360005b8381101561038d578082015181840152602081019050610372565b50505050905090810190601f1680156103ba5780820380516001836020036101000a031916815260200191505b509550505050505060405180910390f35b60008080549050905090565b6103df61095d565b8281600001819052508181602001819052506000816040019073ffffffffffffffffffffffffffffffffffffffff16908173ffffffffffffffffffffffffffffffffffffffff1681525050600081908060018154018082558091505090600182039060005260206000209060030201600090919290919091506000820151816000019080519060200190610474929190610995565b506020820151816001019080519060200190610491929190610995565b5060408201518160020160006101000a81548173ffffffffffffffffffffffffffffffffffffffff021916908373ffffffffffffffffffffffffffffffffffffffff1602179055505050507fcd8d8dec0ec249641785bd1353d89eab301f0a8c0faa401c7f7a82966804a92e8383604051808060200180602001838103835285818151815260200191508051906020019080838360005b83811015610543578082015181840152602081019050610528565b50505050905090810190601f1680156105705780820380516001836020036101000a031916815260200191505b50838103825284818151815260200191508051906020019080838360005b838110156105a957808201518184015260208101905061058e565b50505050905090810190601f1680156105d65780820380516001836020036101000a031916815260200191505b5094505050505060405180910390a1505050565b6000818154811015156105f957fe5b9060005260206000209060030201600091509050806000018054600181600116156101000203166002900480601f0160208091040260200160405190810160405280929190818152602001828054600181600116156101000203166002900480156106a55780601f1061067a576101008083540402835291602001916106a5565b820191906000526020600020905b81548152906001019060200180831161068857829003601f168201915b505050505090806001018054600181600116156101000203166002900480601f0160208091040260200160405190810160405280929190818152602001828054600181600116156101000203166002900480156107435780601f1061071857610100808354040283529160200191610743565b820191906000526020600020905b81548152906001019060200180831161072657829003601f168201915b5050505050908060020160009054906101000a900473ffffffffffffffffffffffffffffffffffffffff16905083565b606080600080841015801561078c575060008054905084105b151561079757600080fd5b6000848154811015156107a657fe5b90600052602060002090600302016000016000858154811015156107c657fe5b90600052602060002090600302016001016000868154811015156107e657fe5b906000526020600020906003020160020160009054906101000a900473ffffffffffffffffffffffffffffffffffffffff16828054600181600116156101000203166002900480601f0160208091040260200160405190810160405280929190818152602001828054600181600116156101000203166002900480156108ad5780601f10610882576101008083540402835291602001916108ad565b820191906000526020600020905b81548152906001019060200180831161089057829003601f168201915b50505050509250818054600181600116156101000203166002900480601f0160208091040260200160405190810160405280929190818152602001828054600181600116156101000203166002900480156109495780601f1061091e57610100808354040283529160200191610949565b820191906000526020600020905b81548152906001019060200180831161092c57829003601f168201915b505050505091509250925092509193909250565b6060604051908101604052806060815260200160608152602001600073ffffffffffffffffffffffffffffffffffffffff1681525090565b828054600181600116156101000203166002900490600052602060002090601f016020900481019282601f106109d657805160ff1916838001178555610a04565b82800160010185558215610a04579182015b82811115610a035782518255916020019190600101906109e8565b5b509050610a119190610a15565b5090565b610a3791905b80821115610a33576000816000905550600101610a1b565b5090565b905600a165627a7a72305820b5f5dc6d70d3fe36b789d06bc717f8f9d6ea5d09f2726b372f144c431ebd74090029",
  "source": "pragma solidity ^0.4.24;\r\n\r\ncontract AssetList {\r\n\r\n    struct Asset {\r\n        string assetName;\r\n        string assetDesc;\r\n        address ownership;\r\n    }\r\n\r\n    Asset[] public assets;\r\n\r\n\tevent AssetCreated(string assetName, string assetDesc);\r\n\r\n\tfunction createAsset(string _assetName, string _assetDesc) public {\r\n        Asset memory newAsset;\r\n        newAsset.assetName = _assetName;\r\n        newAsset.assetDesc = _assetDesc;\r\n        newAsset.ownership = address(0);\r\n        assets.push(newAsset);\r\n\r\n        AssetCreated(_assetName, _assetDesc);\r\n\t}\r\n\r\n    function getAsset(uint i) public view returns(string, string, address) {\r\n        require(i >= 0 && i < assets.length);\r\n        return(assets[i].assetName, assets[i].assetDesc, assets[i].ownership);\r\n    }\r\n\r\n    function getAssetCount() public view returns(uint) {\r\n        return assets.length;\r\n    }\r\n}\r\n",
  "sourcePath": "C:\\Users\\Vivek\\Projects\\Asset Registry\\asset-registry\\contracts\\AssetList.sol",
  "compiler": {
    "name": "solc",
    "version": "0.4.24+commit.e67f0147.Emscripten.clang"
  },
  "schemaVersion": "2.0.1",
  "updatedAt": "2018-07-18T17:25:48.737Z"
}