{
  "contractName": "OwnershipList",
  "abi": [
    {
      "anonymous": false,
      "inputs": [
        {
          "indexed": false,
          "name": "_assetId",
          "type": "bytes32"
        },
        {
          "indexed": false,
          "name": "_person",
          "type": "address"
        }
      ],
      "name": "OwnerAssigned",
      "type": "event"
    },
    {
      "constant": false,
      "inputs": [
        {
          "name": "_assetId",
          "type": "bytes32"
        },
        {
          "name": "_person",
          "type": "address"
        }
      ],
      "name": "assignOwner",
      "outputs": [],
      "payable": false,
      "stateMutability": "nonpayable",
      "type": "function"
    },
    {
      "constant": true,
      "inputs": [
        {
          "name": "_assetId",
          "type": "bytes32"
        }
      ],
      "name": "getOwnerOfAsset",
      "outputs": [
        {
          "name": "",
          "type": "address"
        }
      ],
      "payable": false,
      "stateMutability": "view",
      "type": "function"
    }
  ],
  "bytecode": "0x608060405234801561001057600080fd5b50610253806100206000396000f30060806040526004361061004c576000357c0100000000000000000000000000000000000000000000000000000000900463ffffffff168063286c025714610051578063a3e99ad4146100a2575b600080fd5b34801561005d57600080fd5b506100a06004803603810190808035600019169060200190929190803573ffffffffffffffffffffffffffffffffffffffff169060200190929190505050610113565b005b3480156100ae57600080fd5b506100d160048036038101908080356000191690602001909291905050506101e3565b604051808273ffffffffffffffffffffffffffffffffffffffff1673ffffffffffffffffffffffffffffffffffffffff16815260200191505060405180910390f35b80600080846000191660001916815260200190815260200160002060006101000a81548173ffffffffffffffffffffffffffffffffffffffff021916908373ffffffffffffffffffffffffffffffffffffffff1602179055507fdba1b43457c3563d6da04ea41518d96eb208e76d369bf34ed40f8cfa3e0a65a082826040518083600019166000191681526020018273ffffffffffffffffffffffffffffffffffffffff1673ffffffffffffffffffffffffffffffffffffffff1681526020019250505060405180910390a15050565b6000806000836000191660001916815260200190815260200160002060009054906101000a900473ffffffffffffffffffffffffffffffffffffffff1690509190505600a165627a7a72305820556f7f9f10bd43017ff19495dba8a6720591fe1f3d536ac60979c885d05463d90029",
  "source": "pragma solidity ^0.4.24;\r\n\r\ncontract OwnershipList {\r\n\r\n\tmapping (bytes32 => address) ownerships;\r\n\r\n\tevent OwnerAssigned(bytes32 _assetId, address _person);\r\n\r\n\tfunction assignOwner(bytes32 _assetId, address _person) public {\r\n\t\townerships[_assetId] = _person;\r\n        emit OwnerAssigned(_assetId, _person);\r\n\t}\r\n\r\n\tfunction getOwnerOfAsset(bytes32 _assetId) public view returns(address) {\r\n\t\treturn ownerships[_assetId];\r\n\t}\r\n}\r\n",
  "sourcePath": "C:\\Users\\Vivek\\Projects\\Asset Registry\\asset-registry\\contracts\\OwnershipList.sol",
  "compiler": {
    "name": "solc",
    "version": "0.4.24+commit.e67f0147.Emscripten.clang"
  },
  "schemaVersion": "2.0.1",
  "updatedAt": "2018-07-18T21:41:51.837Z"
}