{
  "contractName": "PersonList",
  "abi": [
    {
      "constant": true,
      "inputs": [
        {
          "name": "",
          "type": "uint256"
        }
      ],
      "name": "persons",
      "outputs": [
        {
          "name": "name",
          "type": "string"
        },
        {
          "name": "age",
          "type": "string"
        }
      ],
      "payable": false,
      "stateMutability": "view",
      "type": "function"
    },
    {
      "anonymous": false,
      "inputs": [
        {
          "indexed": false,
          "name": "name",
          "type": "string"
        },
        {
          "indexed": false,
          "name": "age",
          "type": "string"
        }
      ],
      "name": "PersonCreated",
      "type": "event"
    },
    {
      "constant": false,
      "inputs": [
        {
          "name": "_name",
          "type": "string"
        },
        {
          "name": "_age",
          "type": "string"
        }
      ],
      "name": "createPerson",
      "outputs": [],
      "payable": false,
      "stateMutability": "nonpayable",
      "type": "function"
    },
    {
      "constant": true,
      "inputs": [
        {
          "name": "i",
          "type": "uint256"
        }
      ],
      "name": "getPerson",
      "outputs": [
        {
          "name": "",
          "type": "string"
        },
        {
          "name": "",
          "type": "string"
        }
      ],
      "payable": false,
      "stateMutability": "view",
      "type": "function"
    },
    {
      "constant": true,
      "inputs": [],
      "name": "getPersonCount",
      "outputs": [
        {
          "name": "",
          "type": "uint256"
        }
      ],
      "payable": false,
      "stateMutability": "view",
      "type": "function"
    }
  ],
  "bytecode": "0x608060405234801561001057600080fd5b506108f6806100206000396000f300608060405260043610610062576000357c0100000000000000000000000000000000000000000000000000000000900463ffffffff1680631ed52ed814610067578063246982c414610092578063a2f9eac6146101a4578063fe90ead7146102b6575b600080fd5b34801561007357600080fd5b5061007c610365565b6040518082815260200191505060405180910390f35b34801561009e57600080fd5b506100bd60048036038101908080359060200190929190505050610371565b604051808060200180602001838103835285818151815260200191508051906020019080838360005b838110156101015780820151818401526020810190506100e6565b50505050905090810190601f16801561012e5780820380516001836020036101000a031916815260200191505b50838103825284818151815260200191508051906020019080838360005b8381101561016757808201518184015260208101905061014c565b50505050905090810190601f1680156101945780820380516001836020036101000a031916815260200191505b5094505050505060405180910390f35b3480156101b057600080fd5b506101cf60048036038101908080359060200190929190505050610515565b604051808060200180602001838103835285818151815260200191508051906020019080838360005b838110156102135780820151818401526020810190506101f8565b50505050905090810190601f1680156102405780820380516001836020036101000a031916815260200191505b50838103825284818151815260200191508051906020019080838360005b8381101561027957808201518184015260208101905061025e565b50505050905090810190601f1680156102a65780820380516001836020036101000a031916815260200191505b5094505050505060405180910390f35b3480156102c257600080fd5b50610363600480360381019080803590602001908201803590602001908080601f0160208091040260200160405190810160405280939291908181526020018383808284378201915050505050509192919290803590602001908201803590602001908080601f0160208091040260200160405190810160405280939291908181526020018383808284378201915050505050509192919290505050610678565b005b60008080549050905090565b60608060008310158015610389575060008054905083105b151561039457600080fd5b6000838154811015156103a357fe5b90600052602060002090600202016000016000848154811015156103c357fe5b9060005260206000209060020201600101818054600181600116156101000203166002900480601f0160208091040260200160405190810160405280929190818152602001828054600181600116156101000203166002900480156104695780601f1061043e57610100808354040283529160200191610469565b820191906000526020600020905b81548152906001019060200180831161044c57829003601f168201915b50505050509150808054600181600116156101000203166002900480601f0160208091040260200160405190810160405280929190818152602001828054600181600116156101000203166002900480156105055780601f106104da57610100808354040283529160200191610505565b820191906000526020600020905b8154815290600101906020018083116104e857829003601f168201915b5050505050905091509150915091565b60008181548110151561052457fe5b9060005260206000209060020201600091509050806000018054600181600116156101000203166002900480601f0160208091040260200160405190810160405280929190818152602001828054600181600116156101000203166002900480156105d05780601f106105a5576101008083540402835291602001916105d0565b820191906000526020600020905b8154815290600101906020018083116105b357829003601f168201915b505050505090806001018054600181600116156101000203166002900480601f01602080910402602001604051908101604052809291908181526020018280546001816001161561010002031660029004801561066e5780601f106106435761010080835404028352916020019161066e565b820191906000526020600020905b81548152906001019060200180831161065157829003601f168201915b5050505050905082565b61068061080b565b8281600001819052508181602001819052506000819080600181540180825580915050906001820390600052602060002090600202016000909192909190915060008201518160000190805190602001906106dc929190610825565b5060208201518160010190805190602001906106f9929190610825565b505050507f9460725d8e47849afd6acc9ce846d47902285bcdb295c36c1e90fa7ad72734418383604051808060200180602001838103835285818151815260200191508051906020019080838360005b83811015610764578082015181840152602081019050610749565b50505050905090810190601f1680156107915780820380516001836020036101000a031916815260200191505b50838103825284818151815260200191508051906020019080838360005b838110156107ca5780820151818401526020810190506107af565b50505050905090810190601f1680156107f75780820380516001836020036101000a031916815260200191505b5094505050505060405180910390a1505050565b604080519081016040528060608152602001606081525090565b828054600181600116156101000203166002900490600052602060002090601f016020900481019282601f1061086657805160ff1916838001178555610894565b82800160010185558215610894579182015b82811115610893578251825591602001919060010190610878565b5b5090506108a191906108a5565b5090565b6108c791905b808211156108c35760008160009055506001016108ab565b5090565b905600a165627a7a72305820e2ec4a904c6ffd3845a0b419b37cb34686deac4f649da881d25f68d7ae7376460029",
  "source": "pragma solidity ^0.4.24;\r\n\r\ncontract PersonList {\r\n\r\n    struct Person {\r\n        string name;\r\n        string age;\r\n    }\r\n\r\n    Person[] public persons;\r\n\r\n\tevent PersonCreated(string name, string age);\r\n\r\n\tfunction createPerson(string _name, string _age) public {\r\n        Person memory newPerson;\r\n        newPerson.name = _name;\r\n        newPerson.age = _age;\r\n        persons.push(newPerson);\r\n\r\n        emit PersonCreated(_name, _age);\r\n\t}\r\n\r\n    function getPerson(uint i) public view returns(string, string) {\r\n        require(i >= 0 && i < persons.length);\r\n        return(persons[i].name, persons[i].age);\r\n    }\r\n\r\n    function getPersonCount() public view returns(uint) {\r\n        return persons.length;\r\n    }\r\n}\r\n",
  "sourcePath": "C:\\Users\\Vivek\\Projects\\Asset Registry\\asset-registry\\contracts\\PersonList.sol",
  "compiler": {
    "name": "solc",
    "version": "0.4.24+commit.e67f0147.Emscripten.clang"
  },
  "schemaVersion": "2.0.1",
  "updatedAt": "2018-07-18T18:29:22.692Z"
}